{
  "_format": "hh-sol-artifact-1",
  "contractName": "FHECounter",
  "sourceName": "contracts/FHECounter.sol",
  "abi": [
    {
      "inputs": [
        {
          "internalType": "externalEuint32",
          "name": "inputEuint32",
          "type": "bytes32"
        },
        {
          "internalType": "bytes",
          "name": "inputProof",
          "type": "bytes"
        }
      ],
      "name": "decrement",
      "outputs": [],
      "stateMutability": "nonpayable",
      "type": "function"
    },
    {
      "inputs": [],
      "name": "getCount",
      "outputs": [
        {
          "internalType": "euint32",
          "name": "",
          "type": "bytes32"
        }
      ],
      "stateMutability": "view",
      "type": "function"
    },
    {
      "inputs": [
        {
          "internalType": "externalEuint32",
          "name": "inputEuint32",
          "type": "bytes32"
        },
        {
          "internalType": "bytes",
          "name": "inputProof",
          "type": "bytes"
        }
      ],
      "name": "increment",
      "outputs": [],
      "stateMutability": "nonpayable",
      "type": "function"
    },
    {
      "inputs": [],
      "name": "protocolId",
      "outputs": [
        {
          "internalType": "uint256",
          "name": "",
          "type": "uint256"
        }
      ],
      "stateMutability": "pure",
      "type": "function"
    },
    {
      "inputs": [],
      "name": "resetCounter",
      "outputs": [],
      "stateMutability": "nonpayable",
      "type": "function"
    }
  ],
  "bytecode": "0x608060405234801561000f575f5ffd5b5061018a6100ae604080516080810182525f80825260208201819052918101829052606081019190915250604080516080810182527350157cffd6bbfa2dece204a89ec419c23ef5755d815273cd3ab3bd6bcc0c0bf3e27912a92043e817b1cf69602082015273a02cda4ca3a71d7c46997716f4283aa851c2881291810191909152731364cbbf2cdf5032c47d8226a6f6fbd2afcdacac606082015290565b80517f9e7b61f58c47dc699ac88507c4f5bb9f121c03808c5676a8078fe583e464970080546001600160a01b03199081166001600160a01b039384161790915560208301517f9e7b61f58c47dc699ac88507c4f5bb9f121c03808c5676a8078fe583e46497018054831691841691909117905560408301517f9e7b61f58c47dc699ac88507c4f5bb9f121c03808c5676a8078fe583e46497028054831691841691909117905560608301517f9e7b61f58c47dc699ac88507c4f5bb9f121c03808c5676a8078fe583e46497038054909216921691909117905550565b61081b806101975f395ff3fe608060405234801561000f575f5ffd5b5060043610610064575f3560e01c8063da1f12ab1161004d578063da1f12ab14610092578063dbdf7fce1461009a578063e055f8f9146100a2575f5ffd5b80635941195d14610068578063a87d942c1461007d575b5f5ffd5b61007b6100763660046106f2565b6100b5565b005b5f545b60405190815260200160405180910390f35b612711610080565b61007b610174565b61007b6100b03660046106f2565b610199565b806101075760405162461bcd60e51b815260206004820152601560248201527f50726f6f662063616e6e6f7420626520656d707479000000000000000000000060448201526064015b60405180910390fd5b5f6101478484848080601f0160208091040260200160405190810160405280939291908181526020018383808284375f9201919091525061023392505050565b90506101545f5482610247565b5f81905561016190610275565b5061016d5f5433610284565b5050505050565b61017d5f610296565b5f81905561018a90610275565b506101965f5433610284565b50565b806101e65760405162461bcd60e51b815260206004820152601560248201527f50726f6f662063616e6e6f7420626520656d707479000000000000000000000060448201526064016100fe565b5f6102268484848080601f0160208091040260200160405190810160405280939291908181526020018383808284375f9201919091525061023392505050565b90506101545f54826102ae565b5f610240838360046102dc565b9392505050565b5f82610259576102565f610296565b92505b8161026a576102675f610296565b91505b61024083835f6103fc565b5f61028082306104f7565b5090565b5f61028f83836104f7565b5090919050565b5f6102a88263ffffffff166004610580565b92915050565b5f826102c0576102bd5f610296565b92505b816102d1576102ce5f610296565b91505b61024083835f61063d565b7f9e7b61f58c47dc699ac88507c4f5bb9f121c03808c5676a8078fe583e46497015460405163196d0b9b60e01b81525f917f9e7b61f58c47dc699ac88507c4f5bb9f121c03808c5676a8078fe583e4649700916001600160a01b039091169063196d0b9b90610355908890339089908990600401610789565b6020604051808303815f875af1158015610371573d5f5f3e3d5ffd5b505050506040513d601f19601f8201168201806040525081019061039591906107e3565b8154604051630f8e573b60e21b8152600481018390523360248201529193506001600160a01b031690633e395cec906044015f604051808303815f87803b1580156103de575f5ffd5b505af11580156103f0573d5f5f3e3d5ffd5b50505050509392505050565b5f5f821561040f5750600160f81b610412565b505f5b7f9e7b61f58c47dc699ac88507c4f5bb9f121c03808c5676a8078fe583e46497015460405163022f65e760e31b815260048101879052602481018690527fff00000000000000000000000000000000000000000000000000000000000000831660448201527f9e7b61f58c47dc699ac88507c4f5bb9f121c03808c5676a8078fe583e4649700916001600160a01b03169063117b2f38906064015b6020604051808303815f875af11580156104c9573d5f5f3e3d5ffd5b505050506040513d601f19601f820116820180604052508101906104ed91906107e3565b9695505050505050565b5f7f9e7b61f58c47dc699ac88507c4f5bb9f121c03808c5676a8078fe583e46497008054604051635ca4b5b160e11b8152600481018690526001600160a01b03858116602483015292935091169063b9496b62906044015f604051808303815f87803b158015610565575f5ffd5b505af1158015610577573d5f5f3e3d5ffd5b50505050505050565b7f9e7b61f58c47dc699ac88507c4f5bb9f121c03808c5676a8078fe583e464970154604051639cd07acb60e01b81525f917f9e7b61f58c47dc699ac88507c4f5bb9f121c03808c5676a8078fe583e4649700916001600160a01b0390911690639cd07acb906105f590879087906004016107fa565b6020604051808303815f875af1158015610611573d5f5f3e3d5ffd5b505050506040513d601f19601f8201168201806040525081019061063591906107e3565b949350505050565b5f5f82156106505750600160f81b610653565b505f5b7f9e7b61f58c47dc699ac88507c4f5bb9f121c03808c5676a8078fe583e4649701546040516303056db360e31b815260048101879052602481018690527fff00000000000000000000000000000000000000000000000000000000000000831660448201527f9e7b61f58c47dc699ac88507c4f5bb9f121c03808c5676a8078fe583e4649700916001600160a01b03169063182b6d98906064016104ad565b5f5f5f60408486031215610704575f5ffd5b83359250602084013567ffffffffffffffff811115610721575f5ffd5b8401601f81018613610731575f5ffd5b803567ffffffffffffffff811115610747575f5ffd5b866020828401011115610758575f5ffd5b939660209190910195509293505050565b6054811061078557634e487b7160e01b5f52602160045260245ffd5b9052565b8481526001600160a01b0384166020820152608060408201525f8351806080840152806020860160a085015e5f60a0828501015260a0601f19601f8301168401019150506107da6060830184610769565b95945050505050565b5f602082840312156107f3575f5ffd5b5051919050565b82815260408101610240602083018461076956fea164736f6c634300081b000a",
  "linkReferences": {},
  "deployedLinkReferences": {}
}